:0708B5001208DC7F0A7E003F
:1008BC00E4FDFCC3ED9FEC9E5015E4FBFA0BBB0072
:0F08CC00010ABA04F8BBFBF50DBD00010C80E476
:0108DB0022FA
:1008DC008F90C290C291D2927F017E001208BCC24E
:0208EC00922256
:0E08FD008F90D290C291D2921208B8C292226D
:0E08EE00E4FFFE0FBF00010EBE4EF8BF20F566
:0108FC0022D9
:0F0800007F381208B57F0F1208B57F801208B538
:10080F0075080E75090D750A0B750B07E4F5A075C4
:10081F00B0FFE5B0F460FBE4F50CF50DC3E50D9406
:10082F0004E50C940050D97408250DF8E6FFF5A0E7
:10083F00E5B064FE7021EFB40E0A750E017F311220
:10084F0008FD8054E6FFB40D05750E04804AEFB421
:10085F000B03750E078041E5B064FD701CE6FFB415
:10086F000E05750E028010EFB40D05750E0580078D
:10087F00EFB40B03750E08801FE5B0B4FB1DE6FF48
:10088F00B40E05750E038010EFB40D05750E0680BE
:10089F0007EFB40B03750E091208EE050DE50D7089
:0608AF0002050C02082BFB
:0300000002090BE7
:0C090B00787FE4F6D8FD75811202080028
:00000001FF
