:0C08DF004D494C494E440053484148002C
:070898001208BF7F0A7E0079
:10089F00E4FDFCC3ED9FEC9E5015E4FBFA0BBB008F
:0F08AF00010ABA04F8BBFBF50DBD00010C80E493
:0108BE002217
:1008BF008FA0C290C291D2927F017E0012089FC278
:0208CF00922273
:0E08D1008FA0D290C291D29212089BC29222A6
:06083D008B088A09890AFC
:10084300E4F50BF50CAB08AA09A90A850C82850B04
:100853008312086BFF60101208D112089B050CE588
:070863000C70E2050B80DEC2
:01086A00226B
:100800007F381208987F0F1208987F801208987B13
:10081000FF7A0879DF12083D12089B7FC012089802
:100820007BFF7A0879E612083D12089B7F061208C2
:0D083000987F0C1208BF7F0A7E0002089F0F
:030000000208EB08
:0C08EB00787FE4F6D8FD7581100208004B
:10086B00BB010CE58229F582E5833AF583E0225042
:10087B0006E92582F8E622BBFE06E92582F8E2228C
:0D088B00E58229F582E5833AF583E49322A6
:00000001FF
