:0308D2000108001A
:03000B000208D612
:0308D600B2A23299
:0300030002088C64
:0B088C00C0E0C0D075D000C006C0075F
:100897000508850890E4FFFE0FBF00010EBE03F8B0
:0308A700BFE8F5B2
:0908AA00D007D006D0D0D0E03216
:1008B300C2A2E4F590758902758CA475A883C2A1C0
:0F08C300D2A7D28C30A104D2A780F9C2A780F5AA
:03000000020800F3
:0C080000787FE4F6D8FD758108020847F7
:10080C000208B3E493A3F8E493A34003F68001F247
:10081C0008DFF48029E493A3F85407240CC8C333ED
:10082C00C4540F4420C8834004F456800146F6DFBC
:10083C00E4800B01020408102040809008D2E47E72
:10084C00019360BCA3FF543F30E509541FFEE493B1
:10085C00A360010ECF54C025E060A840B8E493A378
:10086C00FAE493A3F8E493A3C8C582C8CAC583CAA3
:10087C00F0A3C8C582C8CAC583CADFE9DEE780BE5B
:0108D5000022
:00000001FF
